{
  "contractName": "CallerContract",
  "abi": [
    {
      "anonymous": false,
      "inputs": [
        {
          "indexed": false,
          "internalType": "string",
          "name": "hashMessage",
          "type": "string"
        },
        {
          "indexed": false,
          "internalType": "uint256",
          "name": "id",
          "type": "uint256"
        }
      ],
      "name": "ReceivedNewHashRequestEvent",
      "type": "event"
    },
    {
      "anonymous": false,
      "inputs": [
        {
          "indexed": false,
          "internalType": "string",
          "name": "hashRes",
          "type": "string"
        },
        {
          "indexed": false,
          "internalType": "uint256",
          "name": "id",
          "type": "uint256"
        }
      ],
      "name": "getHashEvent",
      "type": "event"
    },
    {
      "inputs": [
        {
          "internalType": "string",
          "name": "_hashMessage",
          "type": "string"
        },
        {
          "internalType": "address",
          "name": "_oracleAddress",
          "type": "address"
        }
      ],
      "name": "hashRequest",
      "outputs": [],
      "stateMutability": "nonpayable",
      "type": "function"
    },
    {
      "inputs": [
        {
          "internalType": "string",
          "name": "_hashRes",
          "type": "string"
        },
        {
          "internalType": "uint256",
          "name": "_id",
          "type": "uint256"
        }
      ],
      "name": "callback",
      "outputs": [],
      "stateMutability": "nonpayable",
      "type": "function"
    }
  ],
  "bytecode": "0x608060405234801561001057600080fd5b50610943806100206000396000f3fe608060405234801561001057600080fd5b50600436106100365760003560e01c806329d308631461003b57806342d1f6fd14610057575b600080fd5b6100556004803603810190610050919061056f565b610073565b005b610071600480360381019061006c9190610601565b6101ad565b005b80600160006101000a81548173ffffffffffffffffffffffffffffffffffffffff021916908373ffffffffffffffffffffffffffffffffffffffff16021790555060008173ffffffffffffffffffffffffffffffffffffffff166385272216846040518263ffffffff1660e01b81526004016100ef91906106e5565b602060405180830381600087803b15801561010957600080fd5b505af115801561011d573d6000803e3d6000fd5b505050506040513d601f19601f82011682018060405250810190610141919061071c565b905060016002600083815260200190815260200160002060006101000a81548160ff0219169083151502179055507f22b9b8e95ae817bf4696edceecf5fcb94283396c526b862e7d65f9a492b4a8ae83826040516101a0929190610758565b60405180910390a1505050565b600160009054906101000a900473ffffffffffffffffffffffffffffffffffffffff1673ffffffffffffffffffffffffffffffffffffffff163373ffffffffffffffffffffffffffffffffffffffff161461023d576040517f08c379a0000000000000000000000000000000000000000000000000000000008152600401610234906107fa565b60405180910390fd5b6002600082815260200190815260200160002060009054906101000a900460ff1661029d576040517f08c379a00000000000000000000000000000000000000000000000000000000081526004016102949061088c565b60405180910390fd5b81600090805190602001906102b3929190610314565b506002600082815260200190815260200160002060006101000a81549060ff02191690557f8e3800a8074197304fa4e4b19943030dcf1acfa7061f96818ac83d0f9d44bb9b8282604051610308929190610758565b60405180910390a15050565b828054610320906108db565b90600052602060002090601f0160209004810192826103425760008555610389565b82601f1061035b57805160ff1916838001178555610389565b82800160010185558215610389579182015b8281111561038857825182559160200191906001019061036d565b5b509050610396919061039a565b5090565b5b808211156103b357600081600090555060010161039b565b5090565b6000604051905090565b600080fd5b600080fd5b600080fd5b600080fd5b6000601f19601f8301169050919050565b7f4e487b7100000000000000000000000000000000000000000000000000000000600052604160045260246000fd5b61041e826103d5565b810181811067ffffffffffffffff8211171561043d5761043c6103e6565b5b80604052505050565b60006104506103b7565b905061045c8282610415565b919050565b600067ffffffffffffffff82111561047c5761047b6103e6565b5b610485826103d5565b9050602081019050919050565b82818337600083830152505050565b60006104b46104af84610461565b610446565b9050828152602081018484840111156104d0576104cf6103d0565b5b6104db848285610492565b509392505050565b600082601f8301126104f8576104f76103cb565b5b81356105088482602086016104a1565b91505092915050565b600073ffffffffffffffffffffffffffffffffffffffff82169050919050565b600061053c82610511565b9050919050565b61054c81610531565b811461055757600080fd5b50565b60008135905061056981610543565b92915050565b60008060408385031215610586576105856103c1565b5b600083013567ffffffffffffffff8111156105a4576105a36103c6565b5b6105b0858286016104e3565b92505060206105c18582860161055a565b9150509250929050565b6000819050919050565b6105de816105cb565b81146105e957600080fd5b50565b6000813590506105fb816105d5565b92915050565b60008060408385031215610618576106176103c1565b5b600083013567ffffffffffffffff811115610636576106356103c6565b5b610642858286016104e3565b9250506020610653858286016105ec565b9150509250929050565b600081519050919050565b600082825260208201905092915050565b60005b8381101561069757808201518184015260208101905061067c565b838111156106a6576000848401525b50505050565b60006106b78261065d565b6106c18185610668565b93506106d1818560208601610679565b6106da816103d5565b840191505092915050565b600060208201905081810360008301526106ff81846106ac565b905092915050565b600081519050610716816105d5565b92915050565b600060208284031215610732576107316103c1565b5b600061074084828501610707565b91505092915050565b610752816105cb565b82525050565b6000604082019050818103600083015261077281856106ac565b90506107816020830184610749565b9392505050565b7f596f7520617265206e6f7420617574686f72697a656420746f2063616c6c207460008201527f6869732066756e6374696f6e2e00000000000000000000000000000000000000602082015250565b60006107e4602d83610668565b91506107ef82610788565b604082019050919050565b60006020820190508181036000830152610813816107d7565b9050919050565b7f546869732072657175657374206973206e6f7420696e206d792070656e64696e60008201527f67206c6973742e00000000000000000000000000000000000000000000000000602082015250565b6000610876602783610668565b91506108818261081a565b604082019050919050565b600060208201905081810360008301526108a581610869565b9050919050565b7f4e487b7100000000000000000000000000000000000000000000000000000000600052602260045260246000fd5b600060028204905060018216806108f357607f821691505b60208210811415610907576109066108ac565b5b5091905056fea26469706673582212202c360f64cf2b6a57c1eb5e8d84384cf14301a32642c02768979bf15adfccedf464736f6c63430008090033",
  "immutableReferences": {},
  "source": "// SPDX-License-Identifier: MIT\npragma solidity ^0.8.9;\n\nimport \"./HashOracle.sol\";\n\ncontract CallerContract {\n    // \n    string private hashRes;\n\n    // HashOracleInterface private oracleInstance;\n\n    address private oracleAddress;\n\n    // listcookie\n    mapping (uint256 => bool) myRequests;\n\n    // event newOracleAddressEvent(address oracleAddress);\n    // oracle\n    event getHashEvent(string hashRes, uint256 id);\n    event ReceivedNewHashRequestEvent(string hashMessage, uint256 id);\n    // // oracle\n    // function setOracleInstanceAddress(address _oracleInstanceAddress) public onlyOwner {\n    //     oracleAddress = _oracleInstanceAddress;\n    //     oracleInstance = HashOracle(oracleAddress);\n    //     emit newOracleAddressEvent(oracleAddress);\n    // }\n\n    // \n    function hashRequest(string memory _hashMessage, address _oracleAddress) public {\n        oracleAddress = _oracleAddress;\n        uint256 id = HashOracle(_oracleAddress).getHashRequest(_hashMessage);\n        myRequests[id] = true;\n        emit ReceivedNewHashRequestEvent(_hashMessage, id);\n    }\n\n    // oracle\n    function callback(string memory _hashRes,uint256 _id) public onlyOracle{\n        require(myRequests[_id],\"This request is not in my pending list.\");\n        hashRes = _hashRes;\n        // \n        delete myRequests[_id];\n        emit getHashEvent(_hashRes, _id);\n    }\n\n    // modifier\n    modifier onlyOracle {\n        require(msg.sender == oracleAddress,\"You are not authorized to call this function.\"); // owner\n        _; // revert\n    }\n\n}",
  "sourcePath": "/home/xwk/hashOracleDemo/contracts/CallerContract.sol",
  "compiler": {
    "name": "solc",
    "version": "0.8.9+commit.e5eed63a.Emscripten.clang"
  },
  "schemaVersion": "3.4.13",
  "updatedAt": "2023-04-19T12:24:45.974Z",
  "networkType": "ethereum",
  "devdoc": {
    "kind": "dev",
    "methods": {},
    "version": 1
  },
  "userdoc": {
    "kind": "user",
    "methods": {},
    "version": 1
  }
}