{
  "contractName": "HashOracle",
  "abi": [
    {
      "anonymous": false,
      "inputs": [
        {
          "indexed": false,
          "internalType": "address",
          "name": "callerAddress",
          "type": "address"
        },
        {
          "indexed": false,
          "internalType": "string",
          "name": "hashMes",
          "type": "string"
        },
        {
          "indexed": false,
          "internalType": "uint256",
          "name": "id",
          "type": "uint256"
        }
      ],
      "name": "GetHashRequestEvent",
      "type": "event"
    },
    {
      "anonymous": false,
      "inputs": [
        {
          "indexed": false,
          "internalType": "string",
          "name": "hashRes",
          "type": "string"
        },
        {
          "indexed": false,
          "internalType": "address",
          "name": "callerAddress",
          "type": "address"
        }
      ],
      "name": "SetHashResEvent",
      "type": "event"
    },
    {
      "inputs": [
        {
          "internalType": "string",
          "name": "_message",
          "type": "string"
        }
      ],
      "name": "getHashRequest",
      "outputs": [
        {
          "internalType": "uint256",
          "name": "",
          "type": "uint256"
        }
      ],
      "stateMutability": "nonpayable",
      "type": "function"
    },
    {
      "inputs": [
        {
          "internalType": "string",
          "name": "_hashRes",
          "type": "string"
        },
        {
          "internalType": "address",
          "name": "_callerAddress",
          "type": "address"
        },
        {
          "internalType": "uint256",
          "name": "_id",
          "type": "uint256"
        }
      ],
      "name": "setHashRes",
      "outputs": [],
      "stateMutability": "nonpayable",
      "type": "function"
    }
  ],
  "bytecode": "0x6080604052600080556103e860015534801561001a57600080fd5b506108ca8061002a6000396000f3fe608060405234801561001057600080fd5b50600436106100365760003560e01c806340867cc11461003b5780638527221614610057575b600080fd5b6100556004803603810190610050919061046d565b610087565b005b610071600480360381019061006c91906104dc565b6101b5565b60405161007e9190610534565b60405180910390f35b6002600082815260200190815260200160002060009054906101000a900460ff166100e7576040517f08c379a00000000000000000000000000000000000000000000000000000000081526004016100de906105d2565b60405180910390fd5b6002600082815260200190815260200160002060006101000a81549060ff02191690558173ffffffffffffffffffffffffffffffffffffffff166342d1f6fd84836040518363ffffffff1660e01b8152600401610145929190610669565b600060405180830381600087803b15801561015f57600080fd5b505af1158015610173573d6000803e3d6000fd5b505050507f6f78f187292fa2e67af61013e850e1ed22804abe97c5109354c47e9001237b5283836040516101a89291906106a8565b60405180910390a1505050565b60008060008154809291906101c990610707565b9190505550600060015442336000546040516020016101ea939291906107b9565b6040516020818303038152906040528051906020012060001c61020d9190610825565b905060016002600083815260200190815260200160002060006101000a81548160ff0219169083151502179055507f041e7cee4f61e7d079088d24a11276ab3746e6dff4bd9bd2468a578d81f0661d33848360405161026e93929190610856565b60405180910390a180915050919050565b6000604051905090565b600080fd5b600080fd5b600080fd5b600080fd5b6000601f19601f8301169050919050565b7f4e487b7100000000000000000000000000000000000000000000000000000000600052604160045260246000fd5b6102e68261029d565b810181811067ffffffffffffffff82111715610305576103046102ae565b5b80604052505050565b600061031861027f565b905061032482826102dd565b919050565b600067ffffffffffffffff821115610344576103436102ae565b5b61034d8261029d565b9050602081019050919050565b82818337600083830152505050565b600061037c61037784610329565b61030e565b90508281526020810184848401111561039857610397610298565b5b6103a384828561035a565b509392505050565b600082601f8301126103c0576103bf610293565b5b81356103d0848260208601610369565b91505092915050565b600073ffffffffffffffffffffffffffffffffffffffff82169050919050565b6000610404826103d9565b9050919050565b610414816103f9565b811461041f57600080fd5b50565b6000813590506104318161040b565b92915050565b6000819050919050565b61044a81610437565b811461045557600080fd5b50565b60008135905061046781610441565b92915050565b60008060006060848603121561048657610485610289565b5b600084013567ffffffffffffffff8111156104a4576104a361028e565b5b6104b0868287016103ab565b93505060206104c186828701610422565b92505060406104d286828701610458565b9150509250925092565b6000602082840312156104f2576104f1610289565b5b600082013567ffffffffffffffff8111156105105761050f61028e565b5b61051c848285016103ab565b91505092915050565b61052e81610437565b82525050565b60006020820190506105496000830184610525565b92915050565b600082825260208201905092915050565b7f546869732072657175657374206973206e6f7420696e206d792070656e64696e60008201527f67206c6973742e00000000000000000000000000000000000000000000000000602082015250565b60006105bc60278361054f565b91506105c782610560565b604082019050919050565b600060208201905081810360008301526105eb816105af565b9050919050565b600081519050919050565b60005b8381101561061b578082015181840152602081019050610600565b8381111561062a576000848401525b50505050565b600061063b826105f2565b610645818561054f565b93506106558185602086016105fd565b61065e8161029d565b840191505092915050565b600060408201905081810360008301526106838185610630565b90506106926020830184610525565b9392505050565b6106a2816103f9565b82525050565b600060408201905081810360008301526106c28185610630565b90506106d16020830184610699565b9392505050565b7f4e487b7100000000000000000000000000000000000000000000000000000000600052601160045260246000fd5b600061071282610437565b91507fffffffffffffffffffffffffffffffffffffffffffffffffffffffffffffffff821415610745576107446106d8565b5b600182019050919050565b6000819050919050565b61076b61076682610437565b610750565b82525050565b60008160601b9050919050565b600061078982610771565b9050919050565b600061079b8261077e565b9050919050565b6107b36107ae826103f9565b610790565b82525050565b60006107c5828661075a565b6020820191506107d582856107a2565b6014820191506107e5828461075a565b602082019150819050949350505050565b7f4e487b7100000000000000000000000000000000000000000000000000000000600052601260045260246000fd5b600061083082610437565b915061083b83610437565b92508261084b5761084a6107f6565b5b828206905092915050565b600060608201905061086b6000830186610699565b818103602083015261087d8185610630565b905061088c6040830184610525565b94935050505056fea26469706673582212206f863854dc93387de9d009cc701a2bbaaa5a28eedd340f4951352ba83f799fb164736f6c63430008090033",
  "immutableReferences": {},
  "source": "// SPDX-License-Identifier: MIT\npragma solidity ^0.8.9;\n\nimport \"./CallerContract.sol\";\n\ncontract HashOracle {\n    uint private randNonce = 0;\n    uint private modulus = 1000;\n\n    mapping (uint256 => bool) pendingRequests;\n    event GetHashRequestEvent(address callerAddress, string hashMes, uint id);\n    event SetHashResEvent(string hashRes,address callerAddress);\n\n    // caller\n    function getHashRequest(string memory _message) public returns(uint256){\n        randNonce++;\n        uint256 id = uint(keccak256(abi.encodePacked(block.timestamp,msg.sender,randNonce))) % modulus;\n        pendingRequests[id] = true;\n        emit GetHashRequestEvent(msg.sender, _message, id);\n\n        return id;\n    }\n\n    // callerContract,\n    function setHashRes(string memory _hashRes, address _callerAddress, uint256 _id) public {\n        require(pendingRequests[_id],\"This request is not in my pending list.\");\n        delete pendingRequests[_id];\n        // callerAddress\n        CallerContract(_callerAddress).callback(_hashRes, _id);\n        emit SetHashResEvent(_hashRes, _callerAddress);\n    }\n}\n\n",
  "sourcePath": "/home/xwk/hashOracleDemo/contracts/HashOracle.sol",
  "compiler": {
    "name": "solc",
    "version": "0.8.9+commit.e5eed63a.Emscripten.clang"
  },
  "schemaVersion": "3.4.13",
  "updatedAt": "2023-04-19T12:24:47.757Z",
  "networkType": "ethereum",
  "devdoc": {
    "kind": "dev",
    "methods": {},
    "version": 1
  },
  "userdoc": {
    "kind": "user",
    "methods": {},
    "version": 1
  }
}